:100000000C9472000C9486000C9486000C9486006C
:100010000C9486000C9486000C9486000C94860048
:100020000C9486000C9407010C9407010C940701B2
:100030000C9486000C9486000C9486000C94860028
:100040000C9486000C9486000C9486000C94860018
:100050000C9486000C9486000C9486000C94BD00D1
:100060000C9486000C9486000C9486000C948600F8
:100070000C9486000C9486000C9486000C948600E8
:100080000C9486000C9486000C9486000C948600D8
:100090000C9486000C9486000C9486000C948600C8
:1000A0000C9486000C9486000C9486000C948600B8
:1000B0000C9486000C9486000C9486000C948600A8
:1000C0000C9486000C9486000C9486000C94860098
:1000D0000C9486000C9486000C9486000C94860088
:1000E0000C94860011241FBECFEFD1E2DEBFCDBF3E
:1000F00000E00CBF22E0A0E0B2E001C01D92AB30F6
:10010000B207E1F70E9411010C9484010C940000E5
:1001100080E090E0892B49F080E090E0892B29F085
:100120000E94000081110E94000080E090E0892B75
:1001300049F080E090E0892B29F00E9400008111B5
:100140000E94000080E090E0892B49F080E090E080
:10015000892B29F00E94000081110E94000080E09C
:1001600090E0892B49F080E090E0892B29F00E94F3
:10017000000081110C94000008951F920F920FB699
:100180000F9211242F933F938F939F93AF93BF931D
:100190008091070290910802A0910902B0910A0291
:1001A0003091060223E0230F2D3758F50196A11D4B
:1001B000B11D209306028093070290930802A0933A
:1001C0000902B0930A028091020290910302A09169
:1001D0000402B09105020196A11DB11D8093020297
:1001E00090930302A0930402B0930502BF91AF91D4
:1001F0009F918F913F912F910F900FBE0F901F9065
:10020000189526E8230F0296A11DB11DD2CF1F928B
:100210000F920FB60F9211240F900FBE0F901F90E8
:100220001895789484B5826084BD84B5816084BD5E
:1002300085B5826085BD85B5816085BD80916E0084
:10024000816080936E0010928100809181008260B5
:1002500080938100809181008160809381008091F2
:1002600080008160809380008091B10084608093E1
:10027000B1008091B00081608093B00080919100C6
:1002800082608093910080919100816080939100C1
:10029000809190008160809390008091A1008260A5
:1002A0008093A1008091A10081608093A100809142
:1002B000A00081608093A0008091210182608093E2
:1002C0002101809121018160809321018091200191
:1002D00081608093200180917A00846080937A000D
:1002E00080917A00826080937A0080917A008160A8
:1002F00080937A0080917A00806880937A001092CF
:0C030000C1000E948800FDCFF894FFCFE0
:00000001FF
